:1000000074EF12F0F76A140FF66E000EF722090073
:10001000F5501200607363745E3738392F613435E0
:10002000362A713132332D6C23303D2B6D005265F1
:1000300061647900416E7300416E73004F757420E6
:100040006F662072616E676500004D61782069738C
:10005000203231343734383336004F7574206F66B0
:100060002072616E676500004D696E206973202DF6
:1000700032313437343833360000416E73007369DF
:100080006E00636F730074616E00737172740000B0
:100090006C6F6700EA6A260EE96EEF500DE0060EFF
:1000A000016E006A002EFED7012EFBD77B0E006E7C
:1000B000002EFED7EF2EF3D712002DB002D08A9873
:1000C00001D08A8893982DB202D08A9A01D08A8A68
:1000D000939A2DB402D08A9C01D08A8C939C2DB621
:1000E00002D08A9E01D08A8E939E00008A809390CF
:1000F000020E006E002EFED700D000008A90939072
:1001000012002E6A9388000E81B8010E2E12938A77
:10011000000E81BA010E006ED890003600502E12EB
:10012000938C000E81BC010E006E00360036FC0E72
:10013000001600502E12938E000E81BE010E006E2E
:10014000003600360036F80E001600502E122EC073
:1001500001F012009388938A938C938E8A849394EF
:1001600000008A8093900000CCDF01C02DF08A90BF
:10017000939000008A80939000D000D00000C1DFEF
:1001800001C02CF08A9093909398939A939C939E9D
:100190002D38006EF00E001600502C10016ED7EFB7
:1001A00000F09390939293948A929392D3D701C044
:1001B0002CF001BEFBD72A5202E18A9201D08A823A
:1001C000939200008A94939400008A9093902B3825
:1001D0002C6E0F0E2C162CC02DF06FDF2B500F0B3A
:1001E0002C6E2D6E6ADF1200280E156E0C0E166E28
:1001F000010E176E060E186E8A9093908A92939253
:100200008A9493949398939A939C939E93909392A9
:1002100093940F0E266E3EDF010E146E14500308E9
:1002200008E3030E2D6E49DF050E266E33DF142A18
:10023000F5D7020E2D6E41DF050E266E2BDF146AF8
:10024000145003080FE3036A1450150FE96E000EF3
:100250000320EA6EEFCF19F02A6A19C02BF0A1DF54
:10026000142AEED793EF12F0959095929594959667
:1002700096909588958A958C958E968295EF12F03A
:10028000272C01D003D0400E286E01D0286A010E21
:10029000265C282628508009296E2A6A2B6E81DF69
:1002A00012002550070A07E00B0A0AE0060A10E0D0
:1002B000020A14E018D0010E266E276EE1DF18D076
:1002C0002A6A010E2B6E6DDF020E266EE3DE10D061
:1002D000010E266E020E276ED3DF0AD02A6A100E98
:1002E0002B6E5FDF05D0010E2A6E25C02BF059DF83
:1002F00012000C0E256ED5DF0B6A0A6A096A086ABD
:100300000F6A0E6A0D6A0C6A106A11901194126AD3
:10031000076A066A056A046A120095908C909592A5
:100320008C9295948C9495968C9696908D909588B9
:1003300083A80CD0958A83AA09D0958C83AC06D06B
:10034000958E83AE03D0968284B204D0010E016EE6
:1003500003D002D0000E016E1200EA6A150EE96E9B
:10036000EF500DE0060E016E006A002EFED7012E42
:10037000FBD77B0E006E002EFED7EF2EF3D71200B8
:1003800095908C8095928C8295948C8495968C8691
:1003900096908D801550FB0F11E2050FE0EF01F0F4
:1003A00095908C900BD095928C9208D095948C94CB
:1003B00005D095968C9602D096908D9005EF02F020
:1003C000E824F76AF736DB0FF66E030EF7220A0011
:1003D000F550FA6E0800F550F96EA003A603AC03C1
:1003E000B203B8039ADF0152D8B48FD0050E156E50
:1003F000B4DF93DF0152D8B488D0146A14500408D3
:10040000D8A083D014C015F0BBD7958883B813D07B
:10041000040ED8801454050DF350166A156E16C0DC
:1004200003F01550F2CF17F0F29EECDD17BEF28EFE
:10043000016E016E6CD0958A83BA17D0040ED880F5
:100440001454050DF350166A156E010E1524016E35
:10045000000E1620036E0150F2CF15F0F29ED2DD91
:1004600015BEF28E016E016E52D0958C83BC17D0F2
:10047000040ED8801454050DF350166A156E020E42
:100480001524016E000E1620036E0150F2CF15F0F8
:10049000F29EB8DD15BEF28E016E016E38D0958EDB
:1004A00083BE17D0040ED8801454050DF350166A7D
:1004B000156E030E1524016E000E1620036E0150FA
:1004C000F2CF15F0F29E9EDD15BEF28E016E016E2A
:1004D0001ED0968284B217D0040ED8801454050D15
:1004E000F350166A156E040E1524016E000E1620C8
:1004F000036E0150F2CF15F0F29E84DD15BEF28E30
:10050000016E016E04D0142A79D7000E016E12001C
:100510000900F5520CE0F6CF14F0F7CF15F0F5CF47
:1005200025F0BFDE14C0F6FF15C0F7FFF1D71200AB
:100530005F50D8B471D0006E6351D8B46DD000262E
:1005400004E3810E002668E204D07F0E005E64E3BF
:1005500063E060C067F06451671B608F648F625115
:100560006603F4CF69F061516503F4CF03F0F3CF74
:1005700068F06603F3506927F4506823000E0322E5
:1005800062516503F3506927F4506823000E026A34
:100590000322022260516603F3506827F4500322BD
:1005A000000E022260516503F3500326F45002222C
:1005B000000E016A012262516403F3506827F4506F
:1005C0000322000E0222012261516403F35003262C
:1005D000F4500222000E012260516403F3500226FF
:1005E000F4500122002A01BE05D0683703360236D6
:1005F00001360006000E68AF0AD0032A022201224B
:10060000015005E1025003E1035001E1002A67BFF8
:10061000018E67AF019E04D0006A016A026A036A14
:1006200012008E0E006E60C001F05FC002F0036A1F
:10063000015209E102C001F0026A080E005E015297
:1006400002E1006A08D0D89001BE04D0023601361B
:100650000006F9D7019E1200800ED8B2641B696BA8
:100660006A6B60C068F06451681B5F50D8B4DCD01E
:10067000676F006E6351D8B4E0D0675FD8B481D0A3
:100680003DE364C06DF06D8F65C06CF066C06BF0CB
:100690006A6BD8906D336C336B336A33672FF8D73E
:1006A00068AF03D06981DDD0699167916989EA6A91
:1006B000620EE96EE9D0699968BF0AD067A113D0CC
:1006C0006D336C336B336A33002AD8B4C5D00BD08A
:1006D0006DBF0CD0D8906A376B376C376D3700061A
:1006E000D8B4BAD0F5D7698D6BD0699D60C068F079
:1006F00060AF02D06D8FA9D06D9FA7D063C067F0A7
:1007000063C000F05F50675F60C06DF06D8F61C0C7
:100710006CF062C06BF06A6BD8906D336C336B33E6
:100720006A33672FF8D768AF03D069839AD069938B
:100730006791698BEA6A660EE96EA6D0699B68BF0D
:100740000AD067A113D06D336C336B336A33002A40
:10075000D8B482D00BD06DBF0CD0D8906A376B372D
:100760006C376D370006D8B477D0F5D7698F28D0AD
:10077000699F64C068F064AF02D06D8F66D06D9FD2
:1007800064D064C06DF06D8F65C06CF066C06BF0B6
:1007900068AF04D06D9F698564D069956A6B679175
:1007A000EA6A620EE96E70D068BF1CD060C068F063
:1007B00067A106D06D336C336B336A33002A4CE08B
:1007C0006AAF0BD06B2B09E16C2B07E16D2B05E1B8
:1007D0006D336C336B33002A3FE069BD86D769BF48
:1007E000C7D71CD0800E6D1B6DAF04D03AD064C04B
:1007F00068F00AD060C068F06D5306E16C5304E104
:100800006B5302E1006A21D06DBF08D0D8906A37DF
:100810006B376C376D37002EF7D71ED068AF02D01C
:100820006D8F13D06D9F11D063C000F064C06DF068
:1008300065C06CF066C06BF008D05FC000F060C0AF
:100840006DF061C06CF062C06BF06DC001F06CC007
:1008500002F06BC003F034D0006A016A026A036AD6
:100860002FD06A6B6B1F6C1F6D1F6A1F6A2B05E10F
:100870006B2B03E16C2B01E16D2B69B115D769B3CB
:1008800056D769B58AD7B3D7EF506B2705E36C2BE2
:1008900003E16D2BD8B46781ED52EF506C2703E371
:1008A0006D2BD8B46781ED52EF50EFBE01D0800AB6
:1008B0006D27D8B0678169B9FED669BB3FD774D7B9
:1008C00012004250D8B4A5D04E6E4650D8B4A1D034
:1008D0004E5E05E37F0E4E26D8B09BD006D0810E2B
:1008E0004E5ED8A096D0D8B494D04EC000F0016A25
:1008F000026A036A4D6A43C04CF04C8E44C04BF010
:1009000045C04AF0190E4E6E49504A5E0DE2010E86
:100910004B5E0AE24C5E08E24D5E06E24D2A4C2A2E
:100920004B2A49504A2628D048504B5E12E2010E0D
:100930004C5E0FE24D5E0DE24D2A4C2A48504B268C
:1009400049504A2619E34B2A17E14C2A15E14D2A52
:1009500013D0475080094C5E0EE2010E4D5E0BE253
:100960004D2A475080094C2648504B26E9E34C2A33
:10097000E7E14D2AE5D703804E2E01D00BD0D89069
:100980004A364B364C364D36D89003360236013651
:100990004F36BAD74FA006D0D89001320232033278
:1009A0004F3202D0000635E04FBE1ED0D8904A36F6
:1009B0004B364C364D3649504A5E07E2010E4B5ECF
:1009C00004E24C5E02E24D5E1AE348504B5E05E2E3
:1009D000010E4C5E02E24D5E12E3475080094C5E10
:1009E00003E2010E4D5E0BE3032A09E1022A07E14F
:1009F000012A05E1002A0DE001320232033243C030
:100A00004EF047504E1A4EAE02D0018E06D0019ED7
:100A100004D0006A016A026A036A12005CC063F0D3
:100A20006051631B63AF05D0D894D8905CBED8806A
:100A30002FD05CC063F05FC064F05B50645F06E081
:100A400063AF26D0D850010AD86E22D060C064F0BF
:100A50005C50645F06E063AF1BD0D850010AD86ECB
:100A600017D061C064F05D50645F06E063AF10D0E2
:100A7000D850010AD86E0CD062C064F05E50645F3A
:100A800006E063AF05D0D850010AD86E01D0D890E7
:100A900012008E0E006E5B50005E5CC002F05DC006
:100AA00001F0028E005209E0D890025202E1015298
:100AB00004E002320132002EF7D75CAE05D0011EF1
:100AC000021E012AD8B4022A1200406A3F6A3E6A16
:100AD0007F0E3D6E7E0E476E800E486E496A4A6AF2
:100AE0007A0E4B6E2A0E4C6EAA0E4D6EA30E4E6EF3
:100AF000750E4F6EB60E506E090E516EB40E526EDC
:100B00006F0E536E4F0E546EB60E556EAA0E566E85
:100B1000690E576E8B0E586EF60E596EE80E5A6EB1
:100B200034C05EF033C05DF032C05CF031C05BF0C9
:100B3000626B616B606B5F6A71DF03E33250800A46
:100B4000326E34C062F033C061F032C060F031C048
:100B50005FF0830E666FF90E656F220E646F7E0E76
:100B6000636FE6DC03C05EF002C05DF001C05CF0C4
:100B700000C05BF08EDF01C041F034C062F033C0D2
:100B800061F032C060F031C05FF0830E666FF90E25
:100B9000656F220E646F7E0E636FCADC03C05EF069
:100BA00002C05DF001C05CF000C05BF0606B41C052
:100BB0005FF037DDD8825EC062F05DC061F05CC07E
:100BC00060F05BC05FF003C066F002C065F001C07A
:100BD00064F000C063F040DD03C046F002C045F0A1
:100BE00001C044F000C043F0030E4116415203E03F
:100BF000415002081AE146C062F045C061F044C0AD
:100C000060F043C05FF0DB0E666F0F0E656F490E3C
:100C1000646F7F0E636F8CDC03C03CF002C03BF05E
:100C200001C03AF000C039F063D0412C31D0D882F5
:100C3000626B616B606B7F0E5F6E46C066F045C095
:100C400065F044C064F043C063F006DD03C05EF0AD
:100C500002C05DF001C05CF000C05BF003C062F058
:100C600002C061F001C060F000C05FF0DB0E666F93
:100C70000F0E656F490E646F7F0E636F59DC03C002
:100C80003CF002C03BF001C03AF000C039F030D077
:100C9000D88246C062F045C061F044C060F043C0F5
:100CA0005FF0666B656B646B7F0E636FD5DC03C0B2
:100CB0005EF002C05DF001C05CF000C05BF003C0FC
:100CC00062F002C061F001C060F000C05FF0DB0EB6
:100CD000666F0F0E656F490E646F7F0E636F28DCC1
:100CE00003C03CF002C03BF001C03AF000C039F054
:100CF000386A376A366A7F0E356E3CC062F03BC098
:100D000061F03AC060F039C05FF03CC066F03BC0B3
:100D100065F03AC064F039C063F00ADC03C03CF00F
:100D200002C03BF001C03AF000C039F0426A4250C4
:100D3000040861E340C062F03FC061F03EC060F073
:100D40003DC05FF03CC066F03BC065F03AC064F067
:100D500039C063F098EC02F003C040F002C03FF0ED
:100D600001C03EF000C03DF04250040DF350036A54
:100D7000470FE96E000E0320EA6EEFCF5BF0ECCF79
:100D80005CF0ECCF5DF0ECCF5EF05EC062F05DC079
:100D900061F05CC060F05BC05FF040C066F03FC0D7
:100DA00065F03EC064F03DC063F098EC02F0EACF1D
:100DB0005CF0E9CF5BF0D89238C062F037C061F0E8
:100DC00036C060F035C05FF003C066F002C065F069
:100DD00001C064F000C063F03FDC5CC0EAFF5BC0B0
:100DE000E9FF03C038F002C037F001C036F000C0A0
:100DF00035F0422A9CD74150020802E0412C03D032
:100E00003650800A366E35C000F036C001F037C06B
:100E100002F038C003F01200D8822CC062F02BC060
:100E200061F02AC060F029C05FF0DB0E666F0F0E24
:100E3000656F490E646F7F0E636F0EDC03C030F088
:100E400002C02FF001C02EF000C02DF003C034F01E
:100E500002C033F001C032F000C031F036DE1200C3
:100E600020C034F01FC033F01EC032F01DC031F07E
:100E70002CDE03C024F002C023F001C022F000C029
:100E800021F024C05EF023C05DF022C05CF021C0E0
:100E90005BF0626B616B606B5F6AC0DD09E1F60E4F
:100EA000006E400E016E970E026ECE0E036E22D0C3
:100EB00020C02CF01FC02BF01EC02AF01DC029F04E
:100EC000ABDF03C028F002C027F001C026F000C04D
:100ED00025F028C045F027C044F026C043F025C0C7
:100EE00042F024C049F023C048F022C047F021C09E
:100EF00046F0E7DCCCEF0AF01CC05EF01BC05DF0F2
:100F00001AC05CF019C05BF0626B616B606B5F6A6A
:100F100085DD01E205E1006A016A026A036A71D0B7
:100F20001CC020F01BC01FF01AC01EF019C01DF01D
:100F3000266A1D0E256E25C0E9FF26C0EAFFEF5088
:100F40002A6A296E7F0E2926000E2A22D8902A307E
:100F5000293026C0EAFF25C0E9FFEF6E20C024F04B
:100F60001FC023F01EC022F01DC021F01CC045F0A0
:100F70001BC044F01AC043F019C042F020C049F031
:100F80001FC048F01EC047F01DC046F09ADCD89242
:100F900020C062F01FC061F01EC060F01DC05FF095
:100FA00003C066F002C065F001C064F000C063F0E9
:100FB0002CEC03F003C020F002C01FF001C01EF0B3
:100FC00000C01DF025C0E9FF26C0EAFFEF0624C0DF
:100FD0005EF023C05DF022C05CF021C05BF020C059
:100FE00062F01FC061F01EC060F01DC05FF016DD32
:100FF000B5E121C000F022C001F023C002F024C0FE
:1010000003F0D6EF0AF08E0E006E40C001F03FC034
:1010100002F0036A40AE05D0011E021E022A01E161
:10102000012A015209E102C001F0026A080E005EC5
:10103000015202E1006A0AD0D89001BE04D0023603
:1010400001360006F9D740BE01D0019E12002CC027
:1010500030F02BC02FF02AC02EF029C02DF030C068
:101060005EF02FC05DF02EC05CF02DC05BF0626BB7
:10107000616B606B7F0E5F6ED1DCD8B488D13F6A44
:101080002D0EE96E3FC0EAFF7E0EEF6ED88230C0B3
:1010900062F02FC061F02EC060F02DC05FF0666B73
:1010A000656B646B7F0E636F2CEC03F003C041F043
:1010B00002C040F001C03FF000C03EF0D89230C006
:1010C00062F02FC061F02EC060F02DC05FF0666B43
:1010D000656B646B7F0E636F2CEC03F041C045F0D1
:1010E00040C044F03FC043F03EC042F003C049F06E
:1010F00002C048F001C047F000C046F061EC04F0C7
:1011000003C030F002C02FF001C02EF000C02DF05F
:1011100030C062F02FC061F02EC060F02DC05FF0D3
:1011200030C066F02FC065F02EC064F02DC063F0B3
:1011300098EC02F003C03CF002C03BF001C03AF072
:1011400000C039F0990E626F470E616F8A0E606FB2
:101150007F0E5F6E3CC066F03BC065F03AC064F045
:1011600039C063F098EC02F003C041F002C040F0D7
:1011700001C03FF000C03EF0D89203C062F002C050
:1011800061F001C060F000C05FF0666B656B646B7E
:10119000800E636F2CEC03F003C034F002C033F018
:1011A00001C032F000C031F04C0E626FF30E616F7F
:1011B0003A0E606F7B0E5F6E3CC066F03BC065F020
:1011C0003AC064F039C063F098EC02F003C041F01B
:1011D00002C040F001C03FF000C03EF0D89203C012
:1011E00062F002C061F001C060F000C05FF02B0E41
:1011F000666F9D0E656FDF0E646F7E0E636F2CEC65
:1012000003F003C038F002C037F001C036F000C070
:1012100035F038C062F037C061F036C060F035C0DC
:101220005FF03CC066F03BC065F03AC064F039C086
:1012300063F098EC02F003C041F002C040F001C03E
:101240003FF000C03EF0D89203C062F002C061F0EF
:1012500001C060F000C05FF0666B656B646B7F0E71
:10126000636F2CEC03F003C038F002C037F001C00C
:1012700036F000C035F030C062F02FC061F02EC0F3
:1012800060F02DC05FF034C066F033C065F032C04E
:1012900064F031C063F098EC02F003C041F002C08A
:1012A00040F001C03FF000C03EF003C045F002C076
:1012B00044F001C043F000C042F038C049F037C0EC
:1012C00048F036C047F035C046F061EC04F003C08A
:1012D00034F002C033F001C032F000C031F03F6A98
:1012E000290EE96E3FC0EAFF7E0EEF5C3D6E3DAE1B
:1012F00012D0000ED8803D54406A3F6E3FBE40067B
:1013000082DE00C035F00150800A366E02C037F030
:1013100003C038F00ED0406A3DC03FF03FBE4006EB
:1013200072DE03C038F002C037F001C036F000C0F2
:1013300035F038C062F037C061F036C060F035C0BB
:101340005FF0180E666F720E656F310E646F7E0E61
:10135000636F98EC02F0D89234C062F033C061F051
:1013600032C060F031C05FF003C066F002C065F0CB
:1013700001C064F000C063F02CEC03F003C034F053
:1013800002C033F001C032F000C031F004D0346A42
:10139000336A326A316A31C000F032C001F033C0C2
:1013A00002F034C003F012001CC02CF01BC02BF064
:1013B0001AC02AF019C029F04ADE03C020F002C08A
:1013C0001FF001C01EF000C01DF020C062F01FC061
:1013D00061F01EC060F01DC05FF0D90E666F5B0E3D
:1013E000656F5E0E646F7D0E636F98EC02F003C054
:1013F00020F002C01FF001C01EF000C01DF01DC093
:1014000000F01EC001F01FC002F020C003F0E0EFAA
:101410000AF01450730A0CE0100A46E0170AD8B418
:1014200080D0050AD8B4B9D01D0AD8B4C0D0C9D06C
:1014300018C062F017C061F016C060F015C05FF010
:10144000D80E666F0F0E656F490E646F800E636F66
:1014500098EC02F003C01CF002C01BF001C01AF0AF
:1014600000C019F003C045F002C044F001C043F0D1
:1014700000C042F0496A486A340E476E860E466ED6
:1014800061EC04F003C01CF002C01BF001C01AF0B4
:1014900000C019F003C02CF002C02BF001C02AF0EC
:1014A00000C029F0B9DC95D018C062F017C061F017
:1014B00016C060F015C05FF0D80E666F0F0E656F36
:1014C000490E646F800E636F98EC02F003C01CF04D
:1014D00002C01BF001C01AF000C019F003C045F0B3
:1014E00002C044F001C043F000C042F0496A486ABB
:1014F000340E476E860E466E61EC04F003C01CF09D
:1015000002C01BF001C01AF000C019F003C034F093
:1015100002C033F001C032F000C031F065EC05F0DC
:1015200058D018C062F017C061F016C060F015C046
:101530005FF0D80E666F0F0E656F490E646F800EF8
:10154000636F98EC02F003C01CF002C01BF001C0F6
:101550001AF000C019F003C045F002C044F001C009
:1015600043F000C042F0496A486A340E476E860E66
:10157000466E61EC04F003C01CF002C01BF001C019
:101580001AF000C019F003C020F002C01FF001C023
:101590001EF000C01DF064D41CD018C01CF017C091
:1015A0001BF016C01AF015C019F0A6D412D018C03E
:1015B0001CF017C01BF016C01AF015C019F0F4D6B5
:1015C00008D015C000F016C001F017C002F018C016
:1015D00003F0120048903CC041F03BC040F03AC0DC
:1015E0003FF039C03EF03CC05EF03BC05DF03AC019
:1015F0005CF039C05BF0626B616B606B5F6A0EEC34
:1016000005F004E348803F50800A3F6E41C05EF021
:1016100040C05DF03FC05CF03EC05BF0626B616B50
:10162000606B8E0E5F6E0EEC05F001E219E141C0B9
:101630005EF040C05DF03FC05CF03EC05BF049EC46
:1016400005F002C060F001C05FF011EC03F003C0D0
:1016500045F002C044F001C043F000C042F0C9D0E0
:1016600041C05EF040C05DF03FC05CF03EC05BF04A
:10167000800E626F960E616F180E606F960E5F6E31
:101680000EEC05F0D8A0ADD041C062F040C061F0D2
:101690003FC060F03EC05FF0666B656B646B700EC0
:1016A000636F98EC02F003C05EF002C05DF001C011
:1016B0005CF000C05BF049EC05F002C047F001C0EF
:1016C00046F041C062F040C061F03FC060F03EC0F3
:1016D0005FF0666B656B646B700E636F98EC02F085
:1016E00003C04CF002C04BF001C04AF000C049F00A
:1016F00047C060F046C05FF011EC03F0D8824CC0E8
:1017000062F04BC061F04AC060F049C05FF003C0B6
:1017100066F002C065F001C064F000C063F02CEC1C
:1017200003F0626B616B606B8E0E5F6E03C066F0E0
:1017300002C065F001C064F000C063F098EC02F0F4
:1017400003C041F002C040F001C03FF000C03EF0D5
:1017500047C060F046C05FF011EC03F0626B616B54
:10176000606B8E0E5F6E03C066F002C065F001C054
:1017700064F000C063F098EC02F003C045F002C0D2
:1017800044F001C043F000C042F041C05EF040C0F0
:101790005DF03FC05CF03EC05BF049EC05F002C07C
:1017A00060F001C05FF011EC03F0D89245C062F028
:1017B00044C061F043C060F042C05FF003C066F017
:1017C00002C065F001C064F000C063F02CEC03F0CF
:1017D00003C045F002C044F001C043F000C042F035
:1017E00008D041C045F040C044F03FC043F03EC087
:1017F00042F041C05EF040C05DF03FC05CF03EC0D2
:101800005BF049EC05F002C060F001C05FF011EC44
:1018100003F0D88241C062F040C061F03FC060F088
:101820003EC05FF003C066F002C065F001C064F026
:1018300000C063F02CEC03F003C041F002C040F0A4
:1018400001C03FF000C03EF048A003D04350800AE2
:10185000436E41C05EF040C05DF03FC05CF03EC0F2
:101860005BF0626B616B606B5F6A0EEC05F038E0F9
:1018700048A01AD03D5218E1D88245C062F044C059
:1018800061F043C060F042C05FF0666B656B646BF3
:101890007F0E636F2CEC03F003C045F002C044F0F0
:1018A00001C043F000C042F048B01AD03D2C18D01F
:1018B000D89245C062F044C061F043C060F042C0BD
:1018C0005FF0666B656B646B7F0E636F2CEC03F0EF
:1018D00003C045F002C044F001C043F000C042F034
:1018E0003CC05EF03BC05DF03AC05CF039C05BF0DC
:1018F000626B616B606B5F6A0EEC05F004E1456A38
:10190000446A436A426A42C000F043C001F044C0E6
:1019100002F045C003F0120038C03CF037C03BF085
:1019200036C03AF035C039F0010E3D6E53DE01EF9E
:101930000DF038C03CF037C03BF036C03AF035C04F
:1019400039F03D6A47DE25EF0DF02CC05EF02BC06C
:101950005DF02AC05CF029C05BF0626B616B606B6C
:101960005F6A0EEC05F0D8B49ED028C045F027C0C1
:1019700044F026C043F025C042F02CC049F02BC0F3
:1019800048F02AC047F029C046F061EC04F003C0DB
:1019900034F002C033F001C032F000C031F003C0B7
:1019A0005EF002C05DF001C05CF000C05BF0626BF5
:1019B000616B606B5F6A0EEC05F024E328C045F0B4
:1019C00027C044F026C043F025C042F02CC049F0A7
:1019D0002BC048F02AC047F029C046F061EC04F063
:1019E00003C034F002C033F001C032F000C031F067
:1019F00003C038F002C037F001C036F000C035F047
:101A00008BD723D028C045F027C044F026C043F030
:101A100025C042F02CC049F02BC048F02AC047F046
:101A200029C046F061EC04F003C034F002C033F08A
:101A300001C032F000C031F003C038F002C037F00E
:101A400001C036F000C035F074D703C030F002C0DA
:101A50002FF001C02EF000C02DF030C062F02FC07A
:101A600061F02EC060F02DC05FF02CC066F02BC07E
:101A700065F02AC064F029C063F098EC02F0D882C7
:101A800028C062F027C061F026C060F025C05FF07A
:101A900003C066F002C065F001C064F000C063F0EE
:101AA0002CEC03F000D012002CC062F02BC061F0CF
:101AB0002AC060F029C05FF03B0E666FAA0E656F0A
:101AC000380E646F7F0E636F98EC02F003C05EF017
:101AD00002C05DF001C05CF000C05BF049EC05F0B5
:101AE00001C039F03A902CC030F02BC02FF02AC042
:101AF0002EF029C02DF02CC05EF02BC05DF02AC066
:101B00005CF029C05BF0626B616B606B5F6A0EEC2E
:101B100005F005E33A80396C2E50800A2E6E346A47
:101B2000336A326A316A3C6A310EE96E3CC0EAFFC0
:101B30007F0E3924EF6E30C062F02FC061F02EC0EE
:101B400060F02DC05FF03B0E666FAA0E656F380E19
:101B5000646F7F0E636F98EC02F003C03EF002C02A
:101B60003DF001C03CF000C03BF0406A39C03FF09E
:101B70003FBE400603EC08F0D8823EC062F03DC094
:101B800061F03CC060F03BC05FF003C066F002C093
:101B900065F001C064F000C063F02CEC03F003C0FA
:101BA00030F002C02FF001C02EF000C02DF07C0EEE
:101BB000626F880E616F590E606F720E5F6E30C07B
:101BC00066F02FC065F02EC064F02DC063F098EC75
:101BD00002F003C03EF002C03DF001C03CF000C086
:101BE0003BF0D89203C062F002C061F001C060F027
:101BF00000C05FF0E00E666F970E656F260E646F93
:101C0000750E636F2CEC03F003C038F002C037F0A0
:101C100001C036F000C035F038C062F037C061F066
:101C200036C060F035C05FF030C066F02FC065F0A0
:101C30002EC064F02DC063F098EC02F003C03EF0BB
:101C400002C03DF001C03CF000C03BF0D89203C0A0
:101C500062F002C061F001C060F000C05FF0C40E2D
:101C6000666F1D0E656F1E0E646F780E636F2CEC31
:101C700003F003C038F002C037F001C036F000C0F6
:101C800035F038C062F037C061F036C060F035C062
:101C90005FF030C066F02FC065F02EC064F02DC03C
:101CA00063F098EC02F003C03EF002C03DF001C0CA
:101CB0003CF000C03BF0D89203C062F002C061F07B
:101CC00001C060F000C05FF05E0E666F500E656F81
:101CD000630E646F7A0E636F2CEC03F003C038F070
:101CE00002C037F001C036F000C035F038C062F0F5
:101CF00037C061F036C060F035C05FF030C066F0CC
:101D00002FC065F02EC064F02DC063F098EC02F097
:101D100003C03EF002C03DF001C03CF000C03BF00B
:101D2000D89203C062F002C061F001C060F000C050
:101D30005FF01A0E666FFE0E656F750E646F7C0E97
:101D4000636F2CEC03F003C038F002C037F001C021
:101D500036F000C035F038C062F037C061F036C0F0
:101D600060F035C05FF030C066F02FC065F02EC067
:101D700064F02DC063F098EC02F003C03EF002C0A6
:101D80003DF001C03CF000C03BF0D89203C062F0CF
:101D900002C061F001C060F000C05FF0180E666F15
:101DA000720E656F310E646F7E0E636F2CEC03F064
:101DB00003C038F002C037F001C036F000C035F083
:101DC00030C062F02FC061F02EC060F02DC05FF017
:101DD00038C066F037C065F036C064F035C063F0D7
:101DE00098EC02F0D892626B616B606B7F0E5F6E55
:101DF00003C066F002C065F001C064F000C063F08B
:101E00002CEC03F034C062F033C061F032C060F0FB
:101E100031C05FF003C066F002C065F001C064F03D
:101E200000C063F098EC02F003C034F002C033F05D
:101E300001C032F000C031F03AA017D0456A446AC0
:101E4000436A7F0E426E34C049F033C048F032C05E
:101E500047F031C046F061EC04F003C034F002C03A
:101E600033F001C032F000C031F031C000F032C0B8
:101E700001F033C002F034C003F0120020C05EF065
:101E80001FC05DF01EC05CF01DC05BF0626B616B3B
:101E9000606B5F6A0EEC05F0D8A0CBD024C028F0B0
:101EA00023C027F022C026F021C025F02C6A2B6A1F
:101EB0002A6A7F0E296E49DD03C028F002C027F090
:101EC00001C026F000C025F003C05EF002C05DF046
:101ED00001C05CF000C05BF0626B616B606B5F6ABD
:101EE0000EEC05F0D8A4A5D024C028F023C027F01C
:101EF00022C026F021C025F02C6A2B6A2A6A800EA7
:101F0000296E23DD03C028F002C027F001C026F0AF
:101F100000C025F003C05EF002C05DF001C05CF0BF
:101F200000C05BF0626B616B606B5F6A0EEC05F08A
:101F30003FE11DC025F01E50800A266E1FC027F00D
:101F400020C028F020C02CF01FC02BF02A6E1DC02E
:101F500029F027EC08F003C028F002C027F001C0E8
:101F600026F000C025F003C062F002C061F001C09D
:101F700060F000C05FF024C066F023C065F022C0AE
:101F800064F021C063F098EC02F003C028F002C0B6
:101F900027F001C026F000C025F003C02CF002C0DD
:101FA0002BF001C02AF000C029F07EDDD0D040D057
:101FB0001DC025F01E50800A266E1FC027F020C0CD
:101FC00028F020C02CF01FC02BF02A6E1DC029F075
:101FD00027EC08F003C028F002C027F001C026F06B
:101FE00000C025F003C062F002C061F001C060F0E3
:101FF00000C05FF024C066F023C065F022C064F02A
:1020000021C063F098EC02F003C028F002C027F072
:1020100001C026F000C025F003C02CF002C02BF058
:1020200001C02AF000C029F03FDD800E011A8FD0D8
:102030008ED020C05EF01FC05DF01EC05CF01DC0E1
:102040005BF0626B616B606B5F6A0EEC05F02BE31B
:1020500024C028F023C027F022C026F021C025F09C
:102060002C6A2B6A2A6A7F0E296E6FDC03C028F067
:1020700002C027F001C026F000C025F003C05EF0CA
:1020800002C05DF001C05CF000C05BF0626B616B90
:10209000606B5F6A0EEC05F006E0006A016A026A96
:1020A000036A55D054D020C05EF01FC05DF01EC042
:1020B0005CF01DC05BF0626B616B606B5F6A0EEC85
:1020C00005F010E124C05EF023C05DF022C05CF09A
:1020D00021C05BF0626B616B606B5F6A0EEC05F0B8
:1020E00001E235E120C02CF01FC02BF01EC02AF009
:1020F0001DC029F027EC08F003C028F002C027F02B
:1021000001C026F000C025F003C062F002C061F0FB
:1021100001C060F000C05FF024C066F023C065F02D
:1021200022C064F021C063F098EC02F003C028F0F4
:1021300002C027F001C026F000C025F003C02CF03B
:1021400002C02BF001C02AF000C029F0ADDC28EF5E
:1021500011F01C502B0A09E0060A1BE0070A2DE0CB
:10216000050A3EE0710A63E074D0D89217C062F0AD
:1021700016C061F015C060F014C05FF01BC066F0BF
:102180001AC065F019C064F018C063F02CEC03F0BD
:1021900068D0D88217C062F016C061F015C060F038
:1021A00014C05FF01BC066F01AC065F019C064F07F
:1021B00018C063F02CEC03F054D017C062F016C0C6
:1021C00061F015C060F014C05FF01BC066F01AC06B
:1021D00065F019C064F018C063F098EC02F041D0CB
:1021E0001BC05EF01AC05DF019C05CF018C05BF057
:1021F000626B616B606B5F6A0EEC05F013E017C0F9
:1022000045F016C044F015C043F014C042F01BC0A6
:1022100049F01AC048F019C047F018C046F061EC08
:1022200004F004D0006A016A026A036A1AD017C077
:1022300020F016C01FF015C01EF014C01DF01BC00A
:1022400024F01AC023F019C022F018C021F016D6CD
:1022500008D018C000F019C001F01AC002F01BC06D
:1022600003F012002550B608256E036A26C029F037
:10227000268ED8902632273228320332023201329B
:102280000032252EF6D729AE0BD0001E011E021EED
:10229000031E002AD8B4012AD8B4022AD8B4032ACB
:1022A000C1EF11F0D8B203D0EA6A2D0EE96E006AD0
:1022B000016A026A036A2D6A2E6A2F6A306A2C50FC
:1022C0002B102A1029102CE0200E316ED8902536C4
:1022D0002636273628362D362E362F3630362C50D9
:1022E000305C08E12B502F5C05E12A502E5C02E1A6
:1022F00029502D5C0FE329502D5E2A50D8A02A3C8E
:102300002E5E2B50D8A02B3C2F5E2C50D8A02C3CFE
:10231000305ED8800036013602360336312ED6D7ED
:102320002DC0EFFF2EC0ECFF2FC0ECFF30C0ECFF44
:102330001200E9501D6E1C501F6E1AE01BC062F0A7
:102340001AC061F019C060F018C05FF0666B656B71
:10235000200E646F820E636F98EC02F003C01BF0D6
:1023600002C01AF001C019F000C018F01F2EE6D705
:102370001BC028F01AC027F019C026F018C025F09D
:1023800071D703C01BF002C01AF001C019F000C0E1
:1023900018F01BAE0DD01D061D8A181E191E1A1E20
:1023A0001B1E182AD8B4192AD8B41A2AD8B41B2A42
:1023B0003B0E246E9A0E236ECA0E226E216A0A0EFE
:1023C0001F6E1C50D8B41D2AD882EA6A180EE96E16
:1023D0001BC028F01AC027F019C026F018C025F03D
:1023E00024C02CF023C02BF022C02AF021C029F0F9
:1023F00059DF015000520FE11C281F5C0CE01D50FA
:102400000CE00F0B1F5C01E03BE21DBE39D01DBC90
:1024100004D0200E30D0200E1D161DAA0DD01D9AFE
:102420001C50D8A41D0600501D6E2D0E256E51ECBB
:1024300001F01D50006E1D6A1C501F5C0BE1005026
:102440001D6E2E0E256E51EC01F01D50006E200EFB
:102450001D16000E300E1DAA0ED01D9A1C50D8A4B9
:102460001D0600501D6E2D0E256E51EC01F01D5005
:10247000006E1D6A300E002600C025F051EC01F000
:10248000D89224C028F023C027F022C026F021C013
:1024900025F02C6A2B6A2A6A0A0E296E03DF03C014
:1024A00024F002C023F001C022F000C021F01F2E52
:1024B0008BD772EF12F0010E266E020E276E40ECE3
:1024C00001F03D0E256E51EC01F0890EE96E17C04A
:1024D0001BF016C01AF015C019F014C018F0020E47
:1024E0001C6E27D703EF14F0F86AD09E076A066ABD
:1024F000056A046A0B6A0A6A096A086A0F6A0E6A40
:102500000D6A0C6A106A119011921194126AC150EE
:10251000C00B0F09C16E070EB46E040E936E939636
:102520008A96F4EF00F034EF01F079EC01F0F2EC70
:1025300001F001C013F01352D8B43ED211B21BD037
:102540001350600818E193968A86118279EC01F0A5
:102550002E0EF66E000EF76E88EC02F0020E146E70
:10256000C80E156EADEC01F0142EFAD70C0E256EC8
:1025700051EC01F01DD211A21BD213502F0845E2DD
:102580001350390842E311A002D079EC01F00BC0DE
:1025900062F00AC061F009C060F008C05FF0666BCD
:1025A000656B200E646F820E636F98EC02F003C0BF
:1025B00017F002C016F001C015F000C014F0300E84
:1025C000135C606B5F6E11EC03F0D89217C062F081
:1025D00016C061F015C060F014C05FF003C066F073
:1025E00002C065F001C064F000C063F02CEC03F0A1
:1025F00003C00BF002C00AF001C009F000C008F0EF
:1026000013C025F051EC01F0D3D11350610825E13E
:1026100011A012D00C0E256E51EC01F007C00BF08A
:1026200006C00AF005C009F004C008F0340EF66ECA
:10263000000EF76E88EC02F011B00ED007C00BF060
:1026400006C00AF005C009F004C008F0380EF66EA6
:10265000000EF76E88EC02F0ABD11350230803E0B4
:1026600013506D0803E179EC01F0A2D113503D083D
:10267000D8A4D0D011A416D012C014F00BC018F0FA
:102680000AC017F009C016F008C015F009EC0AF0EE
:1026900003C00BF002C00AF001C009F000C008F04E
:1026A0001194126A10521CE00FC017F00EC016F001
:1026B0000DC015F00CC014F00BC01BF00AC01AF0CE
:1026C00009C019F008C018F010C01CF042DD03C0AA
:1026D00007F002C006F001C005F000C004F008D009
:1026E0000BC007F00AC006F009C005F008C004F0EE
:1026F000090E5E6ED70E5D6E230E5C6E970E5B6EDE
:1027000007C062F006C061F005C060F004C05FF071
:102710000EEC05F01BE30C0E256E51EC01F0010EE2
:10272000266E276E40EC01F03C0EF66E000EF76E42
:1027300088EC02F0010E266E020E276E40EC01F0CE
:102740004A0EF66E000EF76E88EC02F007C05EF0DF
:1027500006C05DF005C05CF004C05BF00A0E626F5D
:10276000D70E616FA30E606F970E5F6E0EEC05F0D3
:102770001BE30C0E256E51EC01F0010E266E276E48
:1027800040EC01F05A0EF66E000EF76E88EC02F087
:10279000010E266E020E276E40EC01F0680EF66EFA
:1027A000000EF76E88EC02F007C05EF006C05DF028
:1027B00005C05CF004C05BF0090E626FD70E616F5C
:1027C000230E606F970E5F6E0EEC05F01CE30A0E91
:1027D0005E6ED70E5D6EA30E5C6E970E5B6E07C0CD
:1027E00062F006C061F005C060F004C05FF00EEC5E
:1027F00005F009E307C017F006C016F005C015F094
:1028000004C014F058D611800B6A0A6A096A086A73
:10281000106ACED013502B080CE013502D0809E09D
:1028200013502A0806E013502F0803E013505E08E7
:102830005FE111A416D012C014F00BC018F00AC04A
:1028400017F009C016F008C015F009EC0AF003C033
:102850000BF002C00AF001C009F000C008F01194AA
:10286000126A10521CE00FC017F00EC016F00DC017
:1028700015F00CC014F00BC01BF00AC01AF009C010
:1028800019F008C018F010C01CF063DC03C00FF092
:1028900002C00EF001C00DF000C00CF01DD011A060
:1028A00013D007C00FF006C00EF005C00DF004C035
:1028B0000CF00C0E256E51EC01F07A0EF66E000E47
:1028C000F76E88EC02F008D00BC00FF00AC00EF0D3
:1028D00009C00DF008C00CF00B6A0A6A096A086AA0
:1028E00013C010F0119013C025F051EC01F060D02E
:1028F000135073080CE01350630809E01350740878
:1029000006E01350710803E013506C0851E111A464
:1029100016D012C014F00BC018F00AC017F009C08E
:1029200016F008C015F009EC0AF003C00BF002C065
:102930000AF001C009F000C008F01194126A11A059
:1029400002D079EC01F00B6A0A6A096A086A1184FC
:1029500013C012F01350730A09E0100A0EE0170AB0
:1029600013E0050A18E01D0A1DE022D07E0EF66E67
:10297000000EF76E88EC02F01BD0820EF66E000E91
:10298000F76E88EC02F014D0860EF66E000EF76E2D
:1029900088EC02F00DD08A0EF66E000EF76E88EC11
:1029A00002F006D0900EF66E000EF76E88EC02F084
:0C29B000F2EC01F00152FCE1BAD503008A
:020000040030CA
:0E0000003FCC3E1E0007A1000FC00FE00F40D6
:00000001FF
;PIC18F4550
;CRC=B96A  CREATED="21-Jun-25 17:38"
